:1000000011CB900184E493A3600411ED80F7310BD0
:10001000B4410280070BC0E011ED80F2EB146006E2
:0F00200014601014601AD040754100C041C041F7
:0F002F00C040800DD040D041754200C042C0415A
:10003E00C04074C011E0745011ED743D11ED742880
:0F004E0011EDD000D001D002E8540FF8E9540FA3
:0F005D0075F00AA4F9EA540F75F064A42928FF7E
:10006C0090018BE4936052F5F0FDEF84C0E0E5F075
:0F007C006005A3D0E080ECD0070EED75F00A848C
:10008B00F530E5F04430F535E53075F00A84443051
:10009B00F533E5F04430F534E533C0E0540F60043C
:1000AB00D0E011EDE534C0E0540F6004D0E011ED69
:1000BB00E53511ED742C11ED80AA742911ED80FE3C
:1000CB00743811E0740F11E0740611E0740111E043
:0F00DB00748011E022F590C2B5C2B6D2B711FA07
:1000EA00C2B722F590D2B5C2B6D2B711FAC2B722B8
:1000FA00C000C001783279FFD9FED8FAD001D00009
:10010A00227580FF75A000E580540FB40FF611FA2E
:0F011A00E580540FB40F0280F511FAE580540F01
:0F012900B40F0280EA75A0FEE580540FB40F21D9
:0F01380075A0FDE580540FB40F1C75A0FBE5808A
:0F014700540FB40F1775A0F7E580540FB40F12C3
:10015600020118900174800D900178800890017C4E
:100166008003900180135003A380FAE49322313276
:10017600334134353642373839432A302344494EE1
:100186005055543D00020305070B0D1113171D1F93
:1001960025292B2F353B3D4347494F535961656709
:1001A6006B6D717F83898B95979DA3A7ADB3B5BF03
:0C01B600C1C5C7D3DFE3E5E9EFF1FB00B2
:00000001FF
